{
  "contractName": "VRF",
  "abi": [
    {
      "inputs": [],
      "name": "AA",
      "outputs": [
        {
          "internalType": "uint256",
          "name": "",
          "type": "uint256"
        }
      ],
      "stateMutability": "view",
      "type": "function"
    },
    {
      "inputs": [],
      "name": "BB",
      "outputs": [
        {
          "internalType": "uint256",
          "name": "",
          "type": "uint256"
        }
      ],
      "stateMutability": "view",
      "type": "function"
    },
    {
      "inputs": [],
      "name": "GX",
      "outputs": [
        {
          "internalType": "uint256",
          "name": "",
          "type": "uint256"
        }
      ],
      "stateMutability": "view",
      "type": "function"
    },
    {
      "inputs": [],
      "name": "GY",
      "outputs": [
        {
          "internalType": "uint256",
          "name": "",
          "type": "uint256"
        }
      ],
      "stateMutability": "view",
      "type": "function"
    },
    {
      "inputs": [],
      "name": "NN",
      "outputs": [
        {
          "internalType": "uint256",
          "name": "",
          "type": "uint256"
        }
      ],
      "stateMutability": "view",
      "type": "function"
    },
    {
      "inputs": [],
      "name": "PP",
      "outputs": [
        {
          "internalType": "uint256",
          "name": "",
          "type": "uint256"
        }
      ],
      "stateMutability": "view",
      "type": "function"
    }
  ],
  "bytecode": "0x610229610053600b82828239805160001a607314610046577f4e487b7100000000000000000000000000000000000000000000000000000000600052600060045260246000fd5b30600052607381538281f3fe730000000000000000000000000000000000000000301460806040526004361061006c5760003560e01c806303a507be146100715780635727dc5c1461008f5780637a308a4c146100ad5780639870e2a4146100cb578063997da8d4146100e9578063eeeac01e14610107575b600080fd5b610079610125565b60405161008691906101d8565b60405180910390f35b610097610149565b6040516100a491906101d8565b60405180910390f35b6100b561014e565b6040516100c291906101d8565b60405180910390f35b6100d3610172565b6040516100e091906101d8565b60405180910390f35b6100f1610196565b6040516100fe91906101d8565b60405180910390f35b61010f61019b565b60405161011c91906101d8565b60405180910390f35b7f79be667ef9dcbbac55a06295ce870b07029bfcdb2dce28d959f2815b16f8179881565b600781565b7f483ada7726a3c4655da4fbfc0e1108a8fd17b448a68554199c47d08ffb10d4b881565b7ffffffffffffffffffffffffffffffffebaaedce6af48a03bbfd25e8cd036414181565b600081565b7ffffffffffffffffffffffffffffffffffffffffffffffffffffffffefffffc2f81565b6000819050919050565b6101d2816101bf565b82525050565b60006020820190506101ed60008301846101c9565b9291505056fea2646970667358221220b5986f407da02b2514051da14349403339dc7e77eb7162153eb8538901683a7f64736f6c63430008090033",
  "immutableReferences": {},
  "source": "// SPDX-License-Identifier: MIT\npragma solidity 0.8.9;\n\nimport \"./EllipticCurve.sol\";\n\n/**\n * @title Verifiable Random Functions (VRF)\n * @notice Library verifying VRF proofs using the `Secp256k1` curve and the `SHA256` hash function.\n * @dev This library follows the algorithms described in [VRF-draft-04](https://tools.ietf.org/pdf/draft-irtf-cfrg-vrf-04) and [RFC6979](https://tools.ietf.org/html/rfc6979).\n * It supports the _SECP256K1_SHA256_TAI_ cipher suite, i.e. the aforementioned algorithms using `SHA256` and the `Secp256k1` curve.\n * @author Witnet Foundation\n */\nlibrary VRF {\n\n    /**\n     * Secp256k1 parameters\n     */\n\n    // Generator coordinate `x` of the EC curve\n    uint256 public constant GX = 0x79BE667EF9DCBBAC55A06295CE870B07029BFCDB2DCE28D959F2815B16F81798;\n    // Generator coordinate `y` of the EC curve\n    uint256 public constant GY = 0x483ADA7726A3C4655DA4FBFC0E1108A8FD17B448A68554199C47D08FFB10D4B8;\n    // Constant `a` of EC equation\n    uint256 public constant AA = 0;\n    // Constant `b` of EC equation\n    uint256 public constant BB = 7;\n    // Prime number of the curve\n    uint256 public constant PP = 0xFFFFFFFFFFFFFFFFFFFFFFFFFFFFFFFFFFFFFFFFFFFFFFFFFFFFFFFEFFFFFC2F;\n    // Order of the curve\n    uint256 public constant NN = 0xFFFFFFFFFFFFFFFFFFFFFFFFFFFFFFFEBAAEDCE6AF48A03BBFD25E8CD0364141;\n\n    /// @dev Public key derivation from private key.\n    /// Warning: this function should not be used to derive your public key as it would expose the private key.\n    /// @param _d The scalar\n    /// @param _x The coordinate x\n    /// @param _y The coordinate y\n    /// @return (qx, qy) The derived point\n    function derivePoint(uint256 _d, uint256 _x, uint256 _y) internal pure returns (uint256, uint256) {\n        return EllipticCurve.ecMul(\n            _d,\n            _x,\n            _y,\n            AA,\n            PP\n        );\n    }\n\n    /// @dev Function to derive the `y` coordinate given the `x` coordinate and the parity byte (`0x03` for odd `y` and `0x04` for even `y`).\n    /// @param _yByte The parity byte following the ec point compressed format\n    /// @param _x The coordinate `x` of the point\n    /// @return The coordinate `y` of the point\n    function deriveY(uint8 _yByte, uint256 _x) internal pure returns (uint256) {\n        return EllipticCurve.deriveY(\n            _yByte,\n            _x,\n            AA,\n            BB,\n            PP);\n    }\n\n    /// @dev Computes the VRF hash output as result of the digest of a ciphersuite-dependent prefix\n    /// concatenated with the gamma point\n    /// @param _gammaX The x-coordinate of the gamma EC point\n    /// @param _gammaY The y-coordinate of the gamma EC point\n    /// @return The VRF hash ouput as shas256 digest\n    function gammaToHash(uint256 _gammaX, uint256 _gammaY) internal pure returns (bytes32) {\n        bytes memory c = abi.encodePacked(\n        // Cipher suite code (SECP256K1-SHA256-TAI is 0xFE)\n            uint8(0xFE),\n        // 0x03\n            uint8(0x03),\n        // Compressed Gamma Point\n            encodePoint(_gammaX, _gammaY));\n\n        return sha256(c);\n    }\n\n    /// @dev VRF verification by providing the public key, the message and the VRF proof.\n    /// This function computes several elliptic curve operations which may lead to extensive gas consumption.\n    /// @param _publicKey The public key as an array composed of `[pubKey-x, pubKey-y]`\n    /// @param _proof The VRF proof as an array composed of `[gamma-x, gamma-y, c, s]`\n    /// @param _message The message (in bytes) used for computing the VRF\n    /// @return true, if VRF proof is valid\n    function verify(uint256[2] memory _publicKey, uint256[4] memory _proof, bytes memory _message) internal pure returns (bool) {\n        // Step 2: Hash to try and increment (outputs a hashed value, a finite EC point in G)\n        (uint256 hPointX, uint256 hPointY) = hashToTryAndIncrement(_publicKey, _message);\n\n        // Step 3: U = s*B - c*Y (where B is the generator)\n        (uint256 uPointX, uint256 uPointY) = ecMulSubMul(\n            _proof[3],\n            GX,\n            GY,\n            _proof[2],\n            _publicKey[0],\n            _publicKey[1]);\n\n        // Step 4: V = s*H - c*Gamma\n        (uint256 vPointX, uint256 vPointY) = ecMulSubMul(\n            _proof[3],\n            hPointX,\n            hPointY,\n            _proof[2],\n            _proof[0],_proof[1]);\n\n        // Step 5: derived c from hash points(...)\n        bytes16 derivedC = hashPoints(\n            hPointX,\n            hPointY,\n            _proof[0],\n            _proof[1],\n            uPointX,\n            uPointY,\n            vPointX,\n            vPointY);\n\n        // Step 6: Check validity c == c'\n        return uint128(derivedC) == _proof[2];\n    }\n\n    /// @dev VRF fast verification by providing the public key, the message, the VRF proof and several intermediate elliptic curve points that enable the verification shortcut.\n    /// This function leverages the EVM's `ecrecover` precompile to verify elliptic curve multiplications by decreasing the security from 32 to 20 bytes.\n    /// Based on the original idea of Vitalik Buterin: https://ethresear.ch/t/you-can-kinda-abuse-ecrecover-to-do-ecmul-in-secp256k1-today/2384/9\n    /// @param _publicKey The public key as an array composed of `[pubKey-x, pubKey-y]`\n    /// @param _proof The VRF proof as an array composed of `[gamma-x, gamma-y, c, s]`\n    /// @param _message The message (in bytes) used for computing the VRF\n    /// @param _uPoint The `u` EC point defined as `U = s*B - c*Y`\n    /// @param _vComponents The components required to compute `v` as `V = s*H - c*Gamma`\n    /// @return true, if VRF proof is valid\n    function fastVerify(\n        uint256[2] memory _publicKey,\n        uint256[4] memory _proof,\n        bytes memory _message,\n        uint256[2] memory _uPoint,\n        uint256[4] memory _vComponents)\n    internal pure returns (bool)\n    {\n        // Step 2: Hash to try and increment -> hashed value, a finite EC point in G\n        (uint256 hPointX, uint256 hPointY) = hashToTryAndIncrement(_publicKey, _message);\n\n        // Step 3 & Step 4:\n        // U = s*B - c*Y (where B is the generator)\n        // V = s*H - c*Gamma\n        if (!ecMulSubMulVerify(\n            _proof[3],\n            _proof[2],\n            _publicKey[0],\n            _publicKey[1],\n            _uPoint[0],\n            _uPoint[1]) ||\n        !ecMulVerify(\n            _proof[3],\n            hPointX,\n            hPointY,\n            _vComponents[0],\n            _vComponents[1]) ||\n        !ecMulVerify(\n            _proof[2],\n            _proof[0],\n            _proof[1],\n            _vComponents[2],\n            _vComponents[3])\n        )\n        {\n            return false;\n        }\n        (uint256 vPointX, uint256 vPointY) = EllipticCurve.ecSub(\n            _vComponents[0],\n            _vComponents[1],\n            _vComponents[2],\n            _vComponents[3],\n            AA,\n            PP);\n\n        // Step 5: derived c from hash points(...)\n        bytes16 derivedC = hashPoints(\n            hPointX,\n            hPointY,\n            _proof[0],\n            _proof[1],\n            _uPoint[0],\n            _uPoint[1],\n            vPointX,\n            vPointY);\n\n        // Step 6: Check validity c == c'\n        return uint128(derivedC) == _proof[2];\n    }\n\n    /// @dev Decode VRF proof from bytes\n    /// @param _proof The VRF proof as bytes\n    /// @return The VRF proof as an array composed of `[gamma-x, gamma-y, c, s]`\n    function decodeProof(bytes memory _proof) internal pure returns (uint[4] memory) {\n        require(_proof.length == 81, \"Malformed VRF proof\");\n        uint8 gammaSign;\n        uint256 gammaX;\n        uint128 c;\n        uint256 s;\n        assembly {\n            gammaSign := mload(add(_proof, 1))\n            gammaX := mload(add(_proof, 33))\n            c := mload(add(_proof, 49))\n            s := mload(add(_proof, 81))\n        }\n        uint256 gammaY = deriveY(gammaSign, gammaX);\n\n        return [\n        gammaX,\n        gammaY,\n        c,\n        s];\n    }\n\n    /// @dev Decode EC point from bytes\n    /// @param _point The EC point as bytes\n    /// @return The point as `[point-x, point-y]`\n    function decodePoint(bytes memory _point) internal pure returns (uint[2] memory) {\n        require(_point.length == 33, \"Malformed compressed EC point\");\n        uint8 sign;\n        uint256 x;\n        assembly {\n            sign := mload(add(_point, 1))\n            x := mload(add(_point, 33))\n        }\n        uint256 y = deriveY(sign, x);\n\n        return [x, y];\n    }\n\n    /// @dev Compute the parameters (EC points) required for the VRF fast verification function.\n    /// @param _publicKey The public key as an array composed of `[pubKey-x, pubKey-y]`\n    /// @param _proof The VRF proof as an array composed of `[gamma-x, gamma-y, c, s]`\n    /// @param _message The message (in bytes) used for computing the VRF\n    /// @return The fast verify required parameters as the tuple `([uPointX, uPointY], [sHX, sHY, cGammaX, cGammaY])`\n    function computeFastVerifyParams(uint256[2] memory _publicKey, uint256[4] memory _proof, bytes memory _message)\n    internal pure returns (uint256[2] memory, uint256[4] memory)\n    {\n        // Requirements for Step 3: U = s*B - c*Y (where B is the generator)\n        (uint256 hPointX, uint256 hPointY) = hashToTryAndIncrement(_publicKey, _message);\n        (uint256 uPointX, uint256 uPointY) = ecMulSubMul(\n            _proof[3],\n            GX,\n            GY,\n            _proof[2],\n            _publicKey[0],\n            _publicKey[1]);\n        // Requirements for Step 4: V = s*H - c*Gamma\n        (uint256 sHX, uint256 sHY) = derivePoint(_proof[3], hPointX, hPointY);\n        (uint256 cGammaX, uint256 cGammaY) = derivePoint(_proof[2], _proof[0], _proof[1]);\n\n        return (\n        [uPointX, uPointY],\n        [\n        sHX,\n        sHY,\n        cGammaX,\n        cGammaY\n        ]);\n    }\n\n    /// @dev Function to convert a `Hash(PK|DATA)` to a point in the curve as defined in [VRF-draft-04](https://tools.ietf.org/pdf/draft-irtf-cfrg-vrf-04).\n    /// Used in Step 2 of VRF verification function.\n    /// @param _publicKey The public key as an array composed of `[pubKey-x, pubKey-y]`\n    /// @param _message The message used for computing the VRF\n    /// @return The hash point in affine cooridnates\n    function hashToTryAndIncrement(uint256[2] memory _publicKey, bytes memory _message) internal pure returns (uint, uint) {\n        // Step 1: public key to bytes\n        // Step 2: V = cipher_suite | 0x01 | public_key_bytes | message | ctr\n        bytes memory c = abi.encodePacked(\n        // Cipher suite code (SECP256K1-SHA256-TAI is 0xFE)\n            uint8(254),\n        // 0x01\n            uint8(1),\n        // Public Key\n            encodePoint(_publicKey[0], _publicKey[1]),\n        // Message\n            _message);\n\n        // Step 3: find a valid EC point\n        // Loop over counter ctr starting at 0x00 and do hash\n        for (uint8 ctr = 0; ctr < 256; ctr++) {\n            // Counter update\n            // c[cLength-1] = byte(ctr);\n            bytes32 sha = sha256(abi.encodePacked(c, ctr));\n            // Step 4: arbitraty string to point and check if it is on curve\n            uint hPointX = uint256(sha);\n            uint hPointY = deriveY(2, hPointX);\n            if (EllipticCurve.isOnCurve(\n                    hPointX,\n                    hPointY,\n                    AA,\n                    BB,\n                    PP))\n            {\n                // Step 5 (omitted): calculate H (cofactor is 1 on secp256k1)\n                // If H is not \"INVALID\" and cofactor > 1, set H = cofactor * H\n                return (hPointX, hPointY);\n            }\n        }\n        revert(\"No valid point was found\");\n    }\n\n    /// @dev Function to hash a certain set of points as specified in [VRF-draft-04](https://tools.ietf.org/pdf/draft-irtf-cfrg-vrf-04).\n    /// Used in Step 5 of VRF verification function.\n    /// @param _hPointX The coordinate `x` of point `H`\n    /// @param _hPointY The coordinate `y` of point `H`\n    /// @param _gammaX The coordinate `x` of the point `Gamma`\n    /// @param _gammaX The coordinate `y` of the point `Gamma`\n    /// @param _uPointX The coordinate `x` of point `U`\n    /// @param _uPointY The coordinate `y` of point `U`\n    /// @param _vPointX The coordinate `x` of point `V`\n    /// @param _vPointY The coordinate `y` of point `V`\n    /// @return The first half of the digest of the points using SHA256\n    function hashPoints(\n        uint256 _hPointX,\n        uint256 _hPointY,\n        uint256 _gammaX,\n        uint256 _gammaY,\n        uint256 _uPointX,\n        uint256 _uPointY,\n        uint256 _vPointX,\n        uint256 _vPointY)\n    internal pure returns (bytes16)\n    {\n        bytes memory c = abi.encodePacked(\n        // Ciphersuite 0xFE\n            uint8(254),\n        // Prefix 0x02\n            uint8(2),\n        // Points to Bytes\n            encodePoint(_hPointX, _hPointY),\n            encodePoint(_gammaX, _gammaY),\n            encodePoint(_uPointX, _uPointY),\n            encodePoint(_vPointX, _vPointY)\n        );\n        // Hash bytes and truncate\n        bytes32 sha = sha256(c);\n        bytes16 half1;\n        assembly {\n            let freemem_pointer := mload(0x40)\n            mstore(add(freemem_pointer,0x00), sha)\n            half1 := mload(add(freemem_pointer,0x00))\n        }\n\n        return half1;\n    }\n\n    /// @dev Encode an EC point to bytes\n    /// @param _x The coordinate `x` of the point\n    /// @param _y The coordinate `y` of the point\n    /// @return The point coordinates as bytes\n    function encodePoint(uint256 _x, uint256 _y) internal pure returns (bytes memory) {\n        uint8 prefix = uint8(2 + (_y % 2));\n\n        return abi.encodePacked(prefix, _x);\n    }\n\n    /// @dev Substracts two key derivation functionsas `s1*A - s2*B`.\n    /// @param _scalar1 The scalar `s1`\n    /// @param _a1 The `x` coordinate of point `A`\n    /// @param _a2 The `y` coordinate of point `A`\n    /// @param _scalar2 The scalar `s2`\n    /// @param _b1 The `x` coordinate of point `B`\n    /// @param _b2 The `y` coordinate of point `B`\n    /// @return The derived point in affine cooridnates\n    function ecMulSubMul(\n        uint256 _scalar1,\n        uint256 _a1,\n        uint256 _a2,\n        uint256 _scalar2,\n        uint256 _b1,\n        uint256 _b2)\n    internal pure returns (uint256, uint256)\n    {\n        (uint256 m1, uint256 m2) = derivePoint(_scalar1, _a1, _a2);\n        (uint256 n1, uint256 n2) = derivePoint(_scalar2, _b1, _b2);\n        (uint256 r1, uint256 r2) = EllipticCurve.ecSub(\n            m1,\n            m2,\n            n1,\n            n2,\n            AA,\n            PP);\n\n        return (r1, r2);\n    }\n\n    /// @dev Verify an Elliptic Curve multiplication of the form `(qx,qy) = scalar*(x,y)` by using the precompiled `ecrecover` function.\n    /// The usage of the precompiled `ecrecover` function decreases the security from 32 to 20 bytes.\n    /// Based on the original idea of Vitalik Buterin: https://ethresear.ch/t/you-can-kinda-abuse-ecrecover-to-do-ecmul-in-secp256k1-today/2384/9\n    /// @param _scalar The scalar of the point multiplication\n    /// @param _x The coordinate `x` of the point\n    /// @param _y The coordinate `y` of the point\n    /// @param _qx The coordinate `x` of the multiplication result\n    /// @param _qy The coordinate `y` of the multiplication result\n    /// @return true, if first 20 bytes match\n    function ecMulVerify(\n        uint256 _scalar,\n        uint256 _x,\n        uint256 _y,\n        uint256 _qx,\n        uint256 _qy)\n    internal pure returns(bool)\n    {\n        address result = ecrecover(\n            0,\n            _y % 2 != 0 ? 28 : 27,\n            bytes32(_x),\n            bytes32(mulmod(_scalar, _x, NN)));\n\n        return pointToAddress(_qx, _qy) == result;\n    }\n\n    /// @dev Verify an Elliptic Curve operation of the form `Q = scalar1*(gx,gy) - scalar2*(x,y)` by using the precompiled `ecrecover` function, where `(gx,gy)` is the generator of the EC.\n    /// The usage of the precompiled `ecrecover` function decreases the security from 32 to 20 bytes.\n    /// Based on SolCrypto library: https://github.com/HarryR/solcrypto\n    /// @param _scalar1 The scalar of the multiplication of `(gx,gy)`\n    /// @param _scalar2 The scalar of the multiplication of `(x,y)`\n    /// @param _x The coordinate `x` of the point to be mutiply by `scalar2`\n    /// @param _y The coordinate `y` of the point to be mutiply by `scalar2`\n    /// @param _qx The coordinate `x` of the equation result\n    /// @param _qy The coordinate `y` of the equation result\n    /// @return true, if first 20 bytes match\n    function ecMulSubMulVerify(\n        uint256 _scalar1,\n        uint256 _scalar2,\n        uint256 _x,\n        uint256 _y,\n        uint256 _qx,\n        uint256 _qy)\n    internal pure returns(bool)\n    {\n        uint256 scalar1 = (NN - _scalar1) % NN;\n        scalar1 = mulmod(scalar1, _x, NN);\n        uint256 scalar2 = (NN - _scalar2) % NN;\n\n        address result = ecrecover(\n            bytes32(scalar1),\n            _y % 2 != 0 ? 28 : 27,\n            bytes32(_x),\n            bytes32(mulmod(scalar2, _x, NN)));\n\n        return pointToAddress(_qx, _qy) == result;\n    }\n\n    /// @dev Gets the address corresponding to the EC point digest (keccak256), i.e. the first 20 bytes of the digest.\n    /// This function is used for performing a fast EC multiplication verification.\n    /// @param _x The coordinate `x` of the point\n    /// @param _y The coordinate `y` of the point\n    /// @return The address of the EC point digest (keccak256)\n    function pointToAddress(uint256 _x, uint256 _y)\n    internal pure returns(address)\n    {\n        return address(uint160(bytes20(bytes32(\n                uint256(keccak256(abi.encodePacked(_x, _y))) & 0x00FFFFFFFFFFFFFFFFFFFFFFFFFFFFFFFFFFFFFFFF\n            ))));\n    }\n}",
  "sourcePath": "/Users/lap02809/AstraProtocol/LampardNguyen234/vrf/contracts/VRF.sol",
  "compiler": {
    "name": "solc",
    "version": "0.8.9+commit.e5eed63a.Emscripten.clang"
  },
  "schemaVersion": "3.4.8",
  "updatedAt": "2022-08-03T06:21:03.769Z",
  "devdoc": {
    "author": "Witnet Foundation",
    "details": "This library follows the algorithms described in [VRF-draft-04](https://tools.ietf.org/pdf/draft-irtf-cfrg-vrf-04) and [RFC6979](https://tools.ietf.org/html/rfc6979). It supports the _SECP256K1_SHA256_TAI_ cipher suite, i.e. the aforementioned algorithms using `SHA256` and the `Secp256k1` curve.",
    "kind": "dev",
    "methods": {},
    "title": "Verifiable Random Functions (VRF)",
    "version": 1
  },
  "userdoc": {
    "kind": "user",
    "methods": {
      "GX()": {
        "notice": "Secp256k1 parameters"
      }
    },
    "notice": "Library verifying VRF proofs using the `Secp256k1` curve and the `SHA256` hash function.",
    "version": 1
  }
}