{
  "contractName": "VRFVerifier",
  "abi": [
    {
      "inputs": [
        {
          "internalType": "uint256",
          "name": "gammaX",
          "type": "uint256"
        },
        {
          "internalType": "uint256",
          "name": "gammaY",
          "type": "uint256"
        }
      ],
      "name": "gammaToHash",
      "outputs": [
        {
          "internalType": "bytes32",
          "name": "",
          "type": "bytes32"
        }
      ],
      "stateMutability": "nonpayable",
      "type": "function"
    },
    {
      "inputs": [
        {
          "internalType": "uint256[2]",
          "name": "_publicKey",
          "type": "uint256[2]"
        },
        {
          "internalType": "uint256[4]",
          "name": "_proof",
          "type": "uint256[4]"
        },
        {
          "internalType": "bytes",
          "name": "_message",
          "type": "bytes"
        }
      ],
      "name": "verify",
      "outputs": [
        {
          "internalType": "bool",
          "name": "",
          "type": "bool"
        }
      ],
      "stateMutability": "nonpayable",
      "type": "function"
    },
    {
      "inputs": [
        {
          "internalType": "uint256[2]",
          "name": "_publicKey",
          "type": "uint256[2]"
        },
        {
          "internalType": "uint256[4]",
          "name": "_proof",
          "type": "uint256[4]"
        },
        {
          "internalType": "bytes",
          "name": "_message",
          "type": "bytes"
        },
        {
          "internalType": "uint256[2]",
          "name": "_uPoint",
          "type": "uint256[2]"
        },
        {
          "internalType": "uint256[4]",
          "name": "_vComponents",
          "type": "uint256[4]"
        }
      ],
      "name": "fastVerify",
      "outputs": [
        {
          "internalType": "bool",
          "name": "",
          "type": "bool"
        }
      ],
      "stateMutability": "nonpayable",
      "type": "function"
    },
    {
      "inputs": [
        {
          "internalType": "bytes",
          "name": "_proof",
          "type": "bytes"
        }
      ],
      "name": "decodeProof",
      "outputs": [
        {
          "internalType": "uint256[4]",
          "name": "",
          "type": "uint256[4]"
        }
      ],
      "stateMutability": "nonpayable",
      "type": "function"
    },
    {
      "inputs": [
        {
          "internalType": "bytes",
          "name": "_point",
          "type": "bytes"
        }
      ],
      "name": "decodePoint",
      "outputs": [
        {
          "internalType": "uint256[2]",
          "name": "",
          "type": "uint256[2]"
        }
      ],
      "stateMutability": "nonpayable",
      "type": "function"
    },
    {
      "inputs": [
        {
          "internalType": "uint256[2]",
          "name": "_publicKey",
          "type": "uint256[2]"
        },
        {
          "internalType": "uint256[4]",
          "name": "_proof",
          "type": "uint256[4]"
        },
        {
          "internalType": "bytes",
          "name": "_message",
          "type": "bytes"
        }
      ],
      "name": "computeFastVerifyParams",
      "outputs": [
        {
          "internalType": "uint256[2]",
          "name": "",
          "type": "uint256[2]"
        },
        {
          "internalType": "uint256[4]",
          "name": "",
          "type": "uint256[4]"
        }
      ],
      "stateMutability": "nonpayable",
      "type": "function"
    }
  ],
  "bytecode": "0x608060405234801561001057600080fd5b50612f0f806100206000396000f3fe608060405234801561001057600080fd5b50600436106100625760003560e01c806345899df41461006757806351cdea5f146100975780635f098341146100c7578063bbe95b4c146100f7578063c95ac47a14610127578063c9d4ef1f14610158575b600080fd5b610081600480360381019061007c919061229a565b610188565b60405161008e919061234e565b60405180910390f35b6100b160048036038101906100ac9190612369565b6101a2565b6040516100be919061245d565b60405180910390f35b6100e160048036038101906100dc9190612478565b6101ba565b6040516100ee91906124d1565b60405180910390f35b610111600480360381019061010c91906124ec565b6101ce565b60405161011e919061234e565b60405180910390f35b610141600480360381019061013c91906124ec565b6101e4565b60405161014f9291906125df565b60405180910390f35b610172600480360381019061016d9190612369565b61020b565b60405161017f9190612608565b60405180910390f35b60006101978686868686610223565b905095945050505050565b6101aa611f5f565b6101b38261051a565b9050919050565b60006101c683836105a4565b905092915050565b60006101db848484610631565b90509392505050565b6101ec611f5f565b6101f4611f81565b6101ff8585856107f2565b91509150935093915050565b610213611f81565b61021c82610996565b9050919050565b60008060006102328887610a51565b915091506102d48760036004811061024d5761024c612623565b5b60200201518860026004811061026657610265612623565b5b60200201518a60006002811061027f5761027e612623565b5b60200201518b60016002811061029857610297612623565b5b6020020151896000600281106102b1576102b0612623565b5b60200201518a6001600281106102ca576102c9612623565b5b6020020151610bf2565b15806103325750610330876003600481106102f2576102f1612623565b5b602002015183838760006004811061030d5761030c612623565b5b60200201518860016004811061032657610325612623565b5b6020020151610dcf565b155b806103bf57506103bd8760026004811061034f5761034e612623565b5b60200201518860006004811061036857610367612623565b5b60200201518960016004811061038157610380612623565b5b60200201518760026004811061039a57610399612623565b5b6020020151886003600481106103b3576103b2612623565b5b6020020151610dcf565b155b156103cf57600092505050610511565b600080610461866000600481106103e9576103e8612623565b5b60200201518760016004811061040257610401612623565b5b60200201518860026004811061041b5761041a612623565b5b60200201518960036004811061043457610433612623565b5b602002015160007ffffffffffffffffffffffffffffffffffffffffffffffffffffffffefffffc2f610ebc565b9150915060006104d785858c6000600481106104805761047f612623565b5b60200201518d60016004811061049957610498612623565b5b60200201518c6000600281106104b2576104b1612623565b5b60200201518d6001600281106104cb576104ca612623565b5b60200201518989610ef0565b9050896002600481106104ed576104ec612623565b5b60200201518160801c6fffffffffffffffffffffffffffffffff1614955050505050505b95945050505050565b610522611f5f565b6021825114610566576040517f08c379a000000000000000000000000000000000000000000000000000000000815260040161055d906126af565b60405180910390fd5b600080600184015191506021840151905060006105838383610fbe565b90506040518060400160405280838152602001828152509350505050919050565b60008060fe60036105b58686610ff7565b6040516020016105c79392919061278c565b60405160208183030381529060405290506002816040516105e891906127c5565b602060405180830381855afa158015610605573d6000803e3d6000fd5b5050506040513d601f19601f820116820180604052508101906106289190612808565b91505092915050565b60008060006106408685610a51565b915091506000806106f58760036004811061065e5761065d612623565b5b60200201517f79be667ef9dcbbac55a06295ce870b07029bfcdb2dce28d959f2815b16f817987f483ada7726a3c4655da4fbfc0e1108a8fd17b448a68554199c47d08ffb10d4b88a6002600481106106b9576106b8612623565b5b60200201518c6000600281106106d2576106d1612623565b5b60200201518d6001600281106106eb576106ea612623565b5b6020020151611041565b9150915060008061076a8960036004811061071357610712612623565b5b602002015187878c60026004811061072e5761072d612623565b5b60200201518d60006004811061074757610746612623565b5b60200201518e6001600481106107605761075f612623565b5b6020020151611041565b9150915060006107b087878c60006004811061078957610788612623565b5b60200201518d6001600481106107a2576107a1612623565b5b602002015189898989610ef0565b9050896002600481106107c6576107c5612623565b5b60200201518160801c6fffffffffffffffffffffffffffffffff16149750505050505050509392505050565b6107fa611f5f565b610802611f81565b60008061080f8786610a51565b915091506000806108c48860036004811061082d5761082c612623565b5b60200201517f79be667ef9dcbbac55a06295ce870b07029bfcdb2dce28d959f2815b16f817987f483ada7726a3c4655da4fbfc0e1108a8fd17b448a68554199c47d08ffb10d4b88b60026004811061088857610887612623565b5b60200201518d6000600281106108a1576108a0612623565b5b60200201518e6001600281106108ba576108b9612623565b5b6020020151611041565b915091506000806108ee8a6003600481106108e2576108e1612623565b5b602002015187876110b5565b915091506000806109488c60026004811061090c5761090b612623565b5b60200201518d60006004811061092557610924612623565b5b60200201518e60016004811061093e5761093d612623565b5b60200201516110b5565b91509150604051806040016040528087815260200186815250604051806080016040528086815260200185815260200184815260200183815250995099505050505050505050935093915050565b61099e611f81565b60518251146109e2576040517f08c379a00000000000000000000000000000000000000000000000000000000081526004016109d990612881565b60405180910390fd5b600080600080600186015193506021860151925060318601519150605186015190506000610a108585610fbe565b90506040518060800160405280858152602001828152602001846fffffffffffffffffffffffffffffffff1681526020018381525095505050505050919050565b600080600060fe6001610a9487600060028110610a7157610a70612623565b5b602002015188600160028110610a8a57610a89612623565b5b6020020151610ff7565b86604051602001610aa894939291906128a1565b604051602081830303815290604052905060005b6101008160ff161015610baf57600060028383604051602001610ae09291906128e7565b604051602081830303815290604052604051610afc91906127c5565b602060405180830381855afa158015610b19573d6000803e3d6000fd5b5050506040513d601f19601f82011682018060405250810190610b3c9190612808565b905060008160001c90506000610b53600283610fbe565b9050610b848282600060077ffffffffffffffffffffffffffffffffffffffffffffffffffffffffefffffc2f6110f2565b15610b99578181965096505050505050610beb565b5050508080610ba79061293e565b915050610abc565b506040517f08c379a0000000000000000000000000000000000000000000000000000000008152600401610be2906129b4565b60405180910390fd5b9250929050565b6000807ffffffffffffffffffffffffffffffffebaaedce6af48a03bbfd25e8cd0364141887ffffffffffffffffffffffffffffffffebaaedce6af48a03bbfd25e8cd0364141610c4291906129d4565b610c4c9190612a37565b90507ffffffffffffffffffffffffffffffffebaaedce6af48a03bbfd25e8cd036414180610c7d57610c7c612a08565b5b868209905060007ffffffffffffffffffffffffffffffffebaaedce6af48a03bbfd25e8cd0364141887ffffffffffffffffffffffffffffffffebaaedce6af48a03bbfd25e8cd0364141610cd191906129d4565b610cdb9190612a37565b9050600060018360001b600060028a610cf49190612a37565b1415610d0157601b610d04565b601c5b8a60001b7ffffffffffffffffffffffffffffffffebaaedce6af48a03bbfd25e8cd036414180610d3757610d36612a08565b5b8c870960001b60405160008152602001604052604051610d5a9493929190612a77565b6020604051602081039080840390855afa158015610d7c573d6000803e3d6000fd5b5050506020604051035190508073ffffffffffffffffffffffffffffffffffffffff16610da987876111c0565b73ffffffffffffffffffffffffffffffffffffffff161493505050509695505050505050565b6000806001600080600288610de49190612a37565b1415610df157601b610df4565b601c5b8860001b7ffffffffffffffffffffffffffffffffebaaedce6af48a03bbfd25e8cd036414180610e2757610e26612a08565b5b8a8c0960001b60405160008152602001604052604051610e4a9493929190612b04565b6020604051602081039080840390855afa158015610e6c573d6000803e3d6000fd5b5050506020604051035190508073ffffffffffffffffffffffffffffffffffffffff16610e9985856111c0565b73ffffffffffffffffffffffffffffffffffffffff161491505095945050505050565b600080600080610ecd888887611212565b91509150610edf8a8a84848a8a611239565b935093505050965096945050505050565b60008060fe6002610f018c8c610ff7565b610f0b8b8b610ff7565b610f158a8a610ff7565b610f1f8989610ff7565b604051602001610f3496959493929190612b49565b60405160208183030381529060405290506000600282604051610f5791906127c5565b602060405180830381855afa158015610f74573d6000803e3d6000fd5b5050506040513d601f19601f82011682018060405250810190610f979190612808565b90506000604051826000820152600081015191505080935050505098975050505050505050565b6000610fef8383600060077ffffffffffffffffffffffffffffffffffffffffffffffffffffffffefffffc2f6112ce565b905092915050565b606060006002836110089190612a37565b60026110149190612ba9565b90508084604051602001611029929190612c20565b60405160208183030381529060405291505092915050565b6000806000806110528a8a8a6110b5565b915091506000806110648989896110b5565b9150915060008061109a8686868660007ffffffffffffffffffffffffffffffffffffffffffffffffffffffffefffffc2f610ebc565b91509150818197509750505050505050965096945050505050565b6000806110e685858560007ffffffffffffffffffffffffffffffffffffffffffffffffffffffffefffffc2f6113e9565b91509150935093915050565b600085600014806111035750818610155b8061110e5750846000145b806111195750818510155b1561112757600090506111b7565b6000828061113857611137612a08565b5b86870990506000838061114e5761114d612a08565b5b88858061115e5761115d612a08565b5b8a8b090990506000861461119257838061117b5761117a612a08565b5b848061118a57611189612a08565b5b878a09820890505b600085146111af5783806111a9576111a8612a08565b5b85820890505b808214925050505b95945050505050565b600073ffffffffffffffffffffffffffffffffffffffff83836040516020016111ea929190612c4c565b6040516020818303038152906040528051906020012060001c1660001b60601c905092915050565b6000808483858561122391906129d4565b61122d9190612a37565b91509150935093915050565b6000806000806000888b1415611291576000868061125a57611259612a08565b5b898c08141561127257600080945094505050506112c3565b6112808b8b60018a8a611423565b8093508194508295505050506112af565b6112a28b8b60018c8c60018c6115e2565b8093508194508295505050505b6112bb83838389611c61565b945094505050505b965096945050505050565b600060028660ff1614806112e5575060038660ff16145b611324576040517f08c379a000000000000000000000000000000000000000000000000000000000815260040161131b90612cea565b60405180910390fd5b6000828061133557611334612a08565b5b838061134457611343612a08565b5b85858061135457611353612a08565b5b888a0908848061136757611366612a08565b5b858061137657611375612a08565b5b898a0989090890506113a18160046001866113919190612ba9565b61139b9190612d0a565b85611cd8565b905060008060028960ff16846113b79190612ba9565b6113c19190612a37565b146113d75781846113d291906129d4565b6113d9565b815b9050809250505095945050505050565b60008060008060006114008a8a8a60018b8b611dd3565b92509250925061141283838389611c61565b945094505050509550959350505050565b60008060008086141561143e578787879250925092506115d7565b6000848061144f5761144e612a08565b5b898a0990506000858061146557611464612a08565b5b898a0990506000868061147b5761147a612a08565b5b898a0990506000878061149157611490612a08565b5b88806114a05761149f612a08565b5b848e096004099050600088806114b9576114b8612a08565b5b89806114c8576114c7612a08565b5b8a806114d7576114d6612a08565b5b8586098c098a806114eb576114ea612a08565b5b87600309089050888061150157611500612a08565b5b89806115105761150f612a08565b5b8384088a61151e91906129d4565b8a8061152d5761152c612a08565b5b838409089450888061154257611541612a08565b5b898061155157611550612a08565b5b8a806115605761155f612a08565b5b8687096008098a61157191906129d4565b8a806115805761157f612a08565b5b8b8061158f5761158e612a08565b5b888d61159b91906129d4565b8608840908935088806115b1576115b0612a08565b5b89806115c0576115bf612a08565b5b8c8e09600209925084848497509750975050505050505b955095509592505050565b6000806000808a1480156115f65750600089145b1561160957868686925092509250611c54565b6000871480156116195750600086145b1561162c57898989925092509250611c54565b611634611f81565b848061164357611642612a08565b5b898a098160006004811061165a57611659612623565b5b602002018181525050848061167257611671612a08565b5b8160006004811061168657611685612623565b5b60200201518a09816001600481106116a1576116a0612623565b5b60200201818152505084806116b9576116b8612a08565b5b868709816002600481106116d0576116cf612623565b5b60200201818152505084806116e8576116e7612a08565b5b816002600481106116fc576116fb612623565b5b602002015187098160036004811061171757611716612623565b5b6020020181815250506040518060800160405280868061173a57611739612a08565b5b8360026004811061174e5761174d612623565b5b60200201518e098152602001868061176957611768612a08565b5b8360036004811061177d5761177c612623565b5b60200201518d098152602001868061179857611797612a08565b5b836000600481106117ac576117ab612623565b5b60200201518b09815260200186806117c7576117c6612a08565b5b836001600481106117db576117da612623565b5b60200201518a098152509050806002600481106117fb576117fa612623565b5b60200201518160006004811061181457611813612623565b5b602002015114158061185657508060036004811061183557611834612623565b5b60200201518160016004811061184e5761184d612623565b5b602002015114155b611895576040517f08c379a000000000000000000000000000000000000000000000000000000000815260040161188c90612d87565b60405180910390fd5b61189d611f81565b85806118ac576118ab612a08565b5b826000600481106118c0576118bf612623565b5b6020020151876118d091906129d4565b836002600481106118e4576118e3612623565b5b602002015108816000600481106118fe576118fd612623565b5b602002018181525050858061191657611915612a08565b5b8260016004811061192a57611929612623565b5b60200201518761193a91906129d4565b8360036004811061194e5761194d612623565b5b6020020151088160016004811061196857611967612623565b5b60200201818152505085806119805761197f612a08565b5b8160006004811061199457611993612623565b5b6020020151826000600481106119ad576119ac612623565b5b602002015109816002600481106119c7576119c6612623565b5b60200201818152505085806119df576119de612a08565b5b816000600481106119f3576119f2612623565b5b602002015182600260048110611a0c57611a0b612623565b5b60200201510981600360048110611a2657611a25612623565b5b60200201818152505060008680611a4057611a3f612a08565b5b82600360048110611a5457611a53612623565b5b602002015188611a6491906129d4565b8880611a7357611a72612a08565b5b84600160048110611a8757611a86612623565b5b602002015185600160048110611aa057611a9f612623565b5b6020020151090890508680611ab857611ab7612a08565b5b8780611ac757611ac6612a08565b5b8880611ad657611ad5612a08565b5b84600260048110611aea57611ae9612623565b5b602002015186600060048110611b0357611b02612623565b5b60200201510960020988611b1791906129d4565b8208905060008780611b2c57611b2b612a08565b5b8880611b3b57611b3a612a08565b5b838a611b4791906129d4565b8a80611b5657611b55612a08565b5b86600260048110611b6a57611b69612623565b5b602002015188600060048110611b8357611b82612623565b5b6020020151090884600160048110611b9e57611b9d612623565b5b60200201510990508780611bb557611bb4612a08565b5b8880611bc457611bc3612a08565b5b84600360048110611bd857611bd7612623565b5b602002015186600160048110611bf157611bf0612623565b5b60200201510989611c0291906129d4565b8208905060008880611c1757611c16612a08565b5b8980611c2657611c25612a08565b5b8b8f0985600060048110611c3d57611c3c612623565b5b602002015109905082828297509750975050505050505b9750975097945050505050565b6000806000611c708585611e73565b905060008480611c8357611c82612a08565b5b828309905060008580611c9957611c98612a08565b5b828a09905060008680611caf57611cae612a08565b5b8780611cbe57611cbd612a08565b5b8486098a0990508181955095505050505094509492505050565b600080821415611d1d576040517f08c379a0000000000000000000000000000000000000000000000000000000008152600401611d1490612df3565b60405180910390fd5b6000841415611d2f5760009050611dcc565b6000831415611d415760019050611dcc565b60006001905060007f800000000000000000000000000000000000000000000000000000000000000090505b6000811115611dc657838186161515870a85848509099150836002820486161515870a85848509099150836004820486161515870a85848509099150836008820486161515870a85848509099150601081049050611d6d565b81925050505b9392505050565b600080600080891415611dee57878787925092509250611e67565b60008990506000806000600190505b60008414611e595760006001851614611e2c57611e1f8383838f8f8f8e6115e2565b8093508194508295505050505b600284611e399190612d0a565b9350611e488c8c8c8c8c611423565b809c50819d50829e50505050611dfd565b828282965096509650505050505b96509650969350505050565b6000808314158015611e855750818314155b8015611e92575060008214155b611ed1576040517f08c379a0000000000000000000000000000000000000000000000000000000008152600401611ec890612e5f565b60405180910390fd5b60008060019050600084905060005b60008714611f52578682611ef49190612d0a565b9050828680611f0657611f05612a08565b5b8780611f1557611f14612a08565b5b85840988611f2391906129d4565b86088094508195505050868782611f3a9190612e7f565b83611f4591906129d4565b8098508193505050611ee0565b8394505050505092915050565b6040518060400160405280600290602082028036833780820191505090505090565b6040518060800160405280600490602082028036833780820191505090505090565b6000604051905090565b600080fd5b600080fd5b600080fd5b6000601f19601f8301169050919050565b7f4e487b7100000000000000000000000000000000000000000000000000000000600052604160045260246000fd5b61200582611fbc565b810181811067ffffffffffffffff8211171561202457612023611fcd565b5b80604052505050565b6000612037611fa3565b90506120438282611ffc565b919050565b600067ffffffffffffffff82111561206357612062611fcd565b5b602082029050919050565b600080fd5b6000819050919050565b61208681612073565b811461209157600080fd5b50565b6000813590506120a38161207d565b92915050565b60006120bc6120b784612048565b61202d565b905080602084028301858111156120d6576120d561206e565b5b835b818110156120ff57806120eb8882612094565b8452602084019350506020810190506120d8565b5050509392505050565b600082601f83011261211e5761211d611fb7565b5b600261212b8482856120a9565b91505092915050565b600067ffffffffffffffff82111561214f5761214e611fcd565b5b602082029050919050565b600061216d61216884612134565b61202d565b905080602084028301858111156121875761218661206e565b5b835b818110156121b0578061219c8882612094565b845260208401935050602081019050612189565b5050509392505050565b600082601f8301126121cf576121ce611fb7565b5b60046121dc84828561215a565b91505092915050565b600080fd5b600067ffffffffffffffff82111561220557612204611fcd565b5b61220e82611fbc565b9050602081019050919050565b82818337600083830152505050565b600061223d612238846121ea565b61202d565b905082815260208101848484011115612259576122586121e5565b5b61226484828561221b565b509392505050565b600082601f83011261228157612280611fb7565b5b813561229184826020860161222a565b91505092915050565b60008060008060006101a086880312156122b7576122b6611fad565b5b60006122c588828901612109565b95505060406122d6888289016121ba565b94505060c086013567ffffffffffffffff8111156122f7576122f6611fb2565b5b6123038882890161226c565b93505060e061231488828901612109565b925050610120612326888289016121ba565b9150509295509295909350565b60008115159050919050565b61234881612333565b82525050565b6000602082019050612363600083018461233f565b92915050565b60006020828403121561237f5761237e611fad565b5b600082013567ffffffffffffffff81111561239d5761239c611fb2565b5b6123a98482850161226c565b91505092915050565b600060029050919050565b600081905092915050565b6000819050919050565b6123db81612073565b82525050565b60006123ed83836123d2565b60208301905092915050565b6000602082019050919050565b61240f816123b2565b61241981846123bd565b9250612424826123c8565b8060005b8381101561245557815161243c87826123e1565b9650612447836123f9565b925050600181019050612428565b505050505050565b60006040820190506124726000830184612406565b92915050565b6000806040838503121561248f5761248e611fad565b5b600061249d85828601612094565b92505060206124ae85828601612094565b9150509250929050565b6000819050919050565b6124cb816124b8565b82525050565b60006020820190506124e660008301846124c2565b92915050565b600080600060e0848603121561250557612504611fad565b5b600061251386828701612109565b9350506040612524868287016121ba565b92505060c084013567ffffffffffffffff81111561254557612544611fb2565b5b6125518682870161226c565b9150509250925092565b600060049050919050565b600081905092915050565b6000819050919050565b6000602082019050919050565b6125918161255b565b61259b8184612566565b92506125a682612571565b8060005b838110156125d75781516125be87826123e1565b96506125c98361257b565b9250506001810190506125aa565b505050505050565b600060c0820190506125f46000830185612406565b6126016040830184612588565b9392505050565b600060808201905061261d6000830184612588565b92915050565b7f4e487b7100000000000000000000000000000000000000000000000000000000600052603260045260246000fd5b600082825260208201905092915050565b7f4d616c666f726d656420636f6d7072657373656420454320706f696e74000000600082015250565b6000612699601d83612652565b91506126a482612663565b602082019050919050565b600060208201905081810360008301526126c88161268c565b9050919050565b600060ff82169050919050565b60008160f81b9050919050565b60006126f4826126dc565b9050919050565b61270c612707826126cf565b6126e9565b82525050565b600081519050919050565b600081905092915050565b60005b8381101561274657808201518184015260208101905061272b565b83811115612755576000848401525b50505050565b600061276682612712565b612770818561271d565b9350612780818560208601612728565b80840191505092915050565b600061279882866126fb565b6001820191506127a882856126fb565b6001820191506127b8828461275b565b9150819050949350505050565b60006127d1828461275b565b915081905092915050565b6127e5816124b8565b81146127f057600080fd5b50565b600081519050612802816127dc565b92915050565b60006020828403121561281e5761281d611fad565b5b600061282c848285016127f3565b91505092915050565b7f4d616c666f726d6564205652462070726f6f6600000000000000000000000000600082015250565b600061286b601383612652565b915061287682612835565b602082019050919050565b6000602082019050818103600083015261289a8161285e565b9050919050565b60006128ad82876126fb565b6001820191506128bd82866126fb565b6001820191506128cd828561275b565b91506128d9828461275b565b915081905095945050505050565b60006128f3828561275b565b91506128ff82846126fb565b6001820191508190509392505050565b7f4e487b7100000000000000000000000000000000000000000000000000000000600052601160045260246000fd5b6000612949826126cf565b915060ff82141561295d5761295c61290f565b5b600182019050919050565b7f4e6f2076616c696420706f696e742077617320666f756e640000000000000000600082015250565b600061299e601883612652565b91506129a982612968565b602082019050919050565b600060208201905081810360008301526129cd81612991565b9050919050565b60006129df82612073565b91506129ea83612073565b9250828210156129fd576129fc61290f565b5b828203905092915050565b7f4e487b7100000000000000000000000000000000000000000000000000000000600052601260045260246000fd5b6000612a4282612073565b9150612a4d83612073565b925082612a5d57612a5c612a08565b5b828206905092915050565b612a71816126cf565b82525050565b6000608082019050612a8c60008301876124c2565b612a996020830186612a68565b612aa660408301856124c2565b612ab360608301846124c2565b95945050505050565b6000819050919050565b60008160001b9050919050565b6000612aee612ae9612ae484612abc565b612ac6565b6124b8565b9050919050565b612afe81612ad3565b82525050565b6000608082019050612b196000830187612af5565b612b266020830186612a68565b612b3360408301856124c2565b612b4060608301846124c2565b95945050505050565b6000612b5582896126fb565b600182019150612b6582886126fb565b600182019150612b75828761275b565b9150612b81828661275b565b9150612b8d828561275b565b9150612b99828461275b565b9150819050979650505050505050565b6000612bb482612073565b9150612bbf83612073565b9250827fffffffffffffffffffffffffffffffffffffffffffffffffffffffffffffffff03821115612bf457612bf361290f565b5b828201905092915050565b6000819050919050565b612c1a612c1582612073565b612bff565b82525050565b6000612c2c82856126fb565b600182019150612c3c8284612c09565b6020820191508190509392505050565b6000612c588285612c09565b602082019150612c688284612c09565b6020820191508190509392505050565b7f496e76616c696420636f6d7072657373656420454320706f696e74207072656660008201527f6978000000000000000000000000000000000000000000000000000000000000602082015250565b6000612cd4602283612652565b9150612cdf82612c78565b604082019050919050565b60006020820190508181036000830152612d0381612cc7565b9050919050565b6000612d1582612073565b9150612d2083612073565b925082612d3057612d2f612a08565b5b828204905092915050565b7f557365206a6163446f75626c652066756e6374696f6e20696e73746561640000600082015250565b6000612d71601e83612652565b9150612d7c82612d3b565b602082019050919050565b60006020820190508181036000830152612da081612d64565b9050919050565b7f4d6f64756c7573206973207a65726f0000000000000000000000000000000000600082015250565b6000612ddd600f83612652565b9150612de882612da7565b602082019050919050565b60006020820190508181036000830152612e0c81612dd0565b9050919050565b7f496e76616c6964206e756d626572000000000000000000000000000000000000600082015250565b6000612e49600e83612652565b9150612e5482612e13565b602082019050919050565b60006020820190508181036000830152612e7881612e3c565b9050919050565b6000612e8a82612073565b9150612e9583612073565b9250817fffffffffffffffffffffffffffffffffffffffffffffffffffffffffffffffff0483118215151615612ece57612ecd61290f565b5b82820290509291505056fea2646970667358221220a9eed312ffcd4440df24cb145102f8a7b6b2dc00b5bc9178ca45f7d1436b62c764736f6c63430008090033",
  "immutableReferences": {},
  "source": "// SPDX-License-Identifier: MIT\n\npragma solidity 0.8.9;\n\nimport \"./VRF.sol\";\n\n\n/**\n * @title Test Helper for the VRF contract\n * @dev The aim of this contract is twofold:\n * 1. Raise the visibility modifier of VRF contract functions for testing purposes\n * 2. Removal of the `pure` modifier to allow gas consumption analysis.\n */\ncontract VRFVerifier {\n\n    function gammaToHash(uint256 gammaX, uint256 gammaY) public returns (bytes32) {\n        return VRF.gammaToHash(gammaX, gammaY);\n    }\n\n    function verify(\n        uint256[2] memory _publicKey,\n        uint256[4] memory _proof,\n        bytes memory _message)\n    public returns (bool)\n    {\n        return VRF.verify(_publicKey, _proof, _message);\n    }\n\n    function fastVerify(\n        uint256[2] memory _publicKey,\n        uint256[4] memory _proof,\n        bytes memory _message,\n        uint256[2] memory _uPoint,\n        uint256[4] memory _vComponents)\n    public returns (bool)\n    {\n        return VRF.fastVerify(\n            _publicKey,\n            _proof,\n            _message,\n            _uPoint,\n            _vComponents);\n    }\n\n    function decodeProof(bytes memory _proof) public returns (uint[4] memory) {\n        return VRF.decodeProof(_proof);\n    }\n\n    function decodePoint(bytes memory _point) public returns (uint[2] memory) {\n        return VRF.decodePoint(_point);\n    }\n\n    function computeFastVerifyParams(\n        uint256[2] memory _publicKey,\n        uint256[4] memory _proof,\n        bytes memory _message)\n    public returns (uint256[2] memory, uint256[4] memory)\n    {\n        return VRF.computeFastVerifyParams(_publicKey, _proof, _message);\n    }\n}\n",
  "sourcePath": "/Users/lap02809/AstraProtocol/LampardNguyen234/vrf/contracts/VRFVerifier.sol",
  "compiler": {
    "name": "solc",
    "version": "0.8.9+commit.e5eed63a.Emscripten.clang"
  },
  "schemaVersion": "3.4.8",
  "updatedAt": "2022-08-03T06:21:03.772Z",
  "devdoc": {
    "details": "The aim of this contract is twofold: 1. Raise the visibility modifier of VRF contract functions for testing purposes 2. Removal of the `pure` modifier to allow gas consumption analysis.",
    "kind": "dev",
    "methods": {},
    "title": "Test Helper for the VRF contract",
    "version": 1
  },
  "userdoc": {
    "kind": "user",
    "methods": {},
    "version": 1
  }
}