{
  "contractName": "VRFVerifier",
  "abi": [
    {
      "anonymous": false,
      "inputs": [
        {
          "indexed": false,
          "internalType": "bool",
          "name": "success",
          "type": "bool"
        }
      ],
      "name": "VRFStatus",
      "type": "event"
    },
    {
      "inputs": [
        {
          "internalType": "uint256",
          "name": "gammaX",
          "type": "uint256"
        },
        {
          "internalType": "uint256",
          "name": "gammaY",
          "type": "uint256"
        }
      ],
      "name": "gammaToHash",
      "outputs": [
        {
          "internalType": "bytes32",
          "name": "",
          "type": "bytes32"
        }
      ],
      "stateMutability": "nonpayable",
      "type": "function"
    },
    {
      "inputs": [
        {
          "internalType": "uint256[2]",
          "name": "_publicKey",
          "type": "uint256[2]"
        },
        {
          "internalType": "uint256[4]",
          "name": "_proof",
          "type": "uint256[4]"
        },
        {
          "internalType": "bytes",
          "name": "_message",
          "type": "bytes"
        }
      ],
      "name": "verify",
      "outputs": [
        {
          "internalType": "bool",
          "name": "",
          "type": "bool"
        }
      ],
      "stateMutability": "nonpayable",
      "type": "function"
    },
    {
      "inputs": [
        {
          "internalType": "uint256[2]",
          "name": "_publicKey",
          "type": "uint256[2]"
        },
        {
          "internalType": "uint256[4]",
          "name": "_proof",
          "type": "uint256[4]"
        },
        {
          "internalType": "bytes",
          "name": "_message",
          "type": "bytes"
        },
        {
          "internalType": "uint256[2]",
          "name": "_uPoint",
          "type": "uint256[2]"
        },
        {
          "internalType": "uint256[4]",
          "name": "_vComponents",
          "type": "uint256[4]"
        }
      ],
      "name": "fastVerify",
      "outputs": [
        {
          "internalType": "bool",
          "name": "",
          "type": "bool"
        }
      ],
      "stateMutability": "nonpayable",
      "type": "function"
    },
    {
      "inputs": [
        {
          "internalType": "bytes",
          "name": "_proof",
          "type": "bytes"
        }
      ],
      "name": "decodeProof",
      "outputs": [
        {
          "internalType": "uint256[4]",
          "name": "",
          "type": "uint256[4]"
        }
      ],
      "stateMutability": "nonpayable",
      "type": "function"
    },
    {
      "inputs": [
        {
          "internalType": "bytes",
          "name": "_point",
          "type": "bytes"
        }
      ],
      "name": "decodePoint",
      "outputs": [
        {
          "internalType": "uint256[2]",
          "name": "",
          "type": "uint256[2]"
        }
      ],
      "stateMutability": "nonpayable",
      "type": "function"
    },
    {
      "inputs": [
        {
          "internalType": "uint256[2]",
          "name": "_publicKey",
          "type": "uint256[2]"
        },
        {
          "internalType": "uint256[4]",
          "name": "_proof",
          "type": "uint256[4]"
        },
        {
          "internalType": "bytes",
          "name": "_message",
          "type": "bytes"
        }
      ],
      "name": "computeFastVerifyParams",
      "outputs": [
        {
          "internalType": "uint256[2]",
          "name": "",
          "type": "uint256[2]"
        },
        {
          "internalType": "uint256[4]",
          "name": "",
          "type": "uint256[4]"
        }
      ],
      "stateMutability": "nonpayable",
      "type": "function"
    }
  ],
  "bytecode": "0x608060405234801561001057600080fd5b50612f4a806100206000396000f3fe608060405234801561001057600080fd5b50600436106100625760003560e01c806345899df41461006757806351cdea5f146100975780635f098341146100c7578063bbe95b4c146100f7578063c95ac47a14610127578063c9d4ef1f14610158575b600080fd5b610081600480360381019061007c91906122d5565b610188565b60405161008e9190612389565b60405180910390f35b6100b160048036038101906100ac91906123a4565b6101a2565b6040516100be9190612498565b60405180910390f35b6100e160048036038101906100dc91906124b3565b6101ba565b6040516100ee919061250c565b60405180910390f35b610111600480360381019061010c9190612527565b6101ce565b60405161011e9190612389565b60405180910390f35b610141600480360381019061013c9190612527565b61021f565b60405161014f92919061261a565b60405180910390f35b610172600480360381019061016d91906123a4565b610246565b60405161017f9190612643565b60405180910390f35b6000610197868686868661025e565b905095945050505050565b6101aa611f9a565b6101b382610555565b9050919050565b60006101c683836105df565b905092915050565b6000806101dc85858561066c565b90507ede670768e8b3135158459c4407c88194819a80fc19ca94deb208b0fdb469e58160405161020c9190612389565b60405180910390a1809150509392505050565b610227611f9a565b61022f611fbc565b61023a85858561082d565b91509150935093915050565b61024e611fbc565b610257826109d1565b9050919050565b600080600061026d8887610a8c565b9150915061030f876003600481106102885761028761265e565b5b6020020151886002600481106102a1576102a061265e565b5b60200201518a6000600281106102ba576102b961265e565b5b60200201518b6001600281106102d3576102d261265e565b5b6020020151896000600281106102ec576102eb61265e565b5b60200201518a6001600281106103055761030461265e565b5b6020020151610c2d565b158061036d575061036b8760036004811061032d5761032c61265e565b5b60200201518383876000600481106103485761034761265e565b5b6020020151886001600481106103615761036061265e565b5b6020020151610e0a565b155b806103fa57506103f88760026004811061038a5761038961265e565b5b6020020151886000600481106103a3576103a261265e565b5b6020020151896001600481106103bc576103bb61265e565b5b6020020151876002600481106103d5576103d461265e565b5b6020020151886003600481106103ee576103ed61265e565b5b6020020151610e0a565b155b1561040a5760009250505061054c565b60008061049c866000600481106104245761042361265e565b5b60200201518760016004811061043d5761043c61265e565b5b6020020151886002600481106104565761045561265e565b5b60200201518960036004811061046f5761046e61265e565b5b602002015160007ffffffffffffffffffffffffffffffffffffffffffffffffffffffffefffffc2f610ef7565b91509150600061051285858c6000600481106104bb576104ba61265e565b5b60200201518d6001600481106104d4576104d361265e565b5b60200201518c6000600281106104ed576104ec61265e565b5b60200201518d6001600281106105065761050561265e565b5b60200201518989610f2b565b9050896002600481106105285761052761265e565b5b60200201518160801c6fffffffffffffffffffffffffffffffff1614955050505050505b95945050505050565b61055d611f9a565b60218251146105a1576040517f08c379a0000000000000000000000000000000000000000000000000000000008152600401610598906126ea565b60405180910390fd5b600080600184015191506021840151905060006105be8383610ff9565b90506040518060400160405280838152602001828152509350505050919050565b60008060fe60036105f08686611032565b604051602001610602939291906127c7565b60405160208183030381529060405290506002816040516106239190612800565b602060405180830381855afa158015610640573d6000803e3d6000fd5b5050506040513d601f19601f820116820180604052508101906106639190612843565b91505092915050565b600080600061067b8685610a8c565b91509150600080610730876003600481106106995761069861265e565b5b60200201517f79be667ef9dcbbac55a06295ce870b07029bfcdb2dce28d959f2815b16f817987f483ada7726a3c4655da4fbfc0e1108a8fd17b448a68554199c47d08ffb10d4b88a6002600481106106f4576106f361265e565b5b60200201518c60006002811061070d5761070c61265e565b5b60200201518d6001600281106107265761072561265e565b5b602002015161107c565b915091506000806107a58960036004811061074e5761074d61265e565b5b602002015187878c6002600481106107695761076861265e565b5b60200201518d6000600481106107825761078161265e565b5b60200201518e60016004811061079b5761079a61265e565b5b602002015161107c565b9150915060006107eb87878c6000600481106107c4576107c361265e565b5b60200201518d6001600481106107dd576107dc61265e565b5b602002015189898989610f2b565b9050896002600481106108015761080061265e565b5b60200201518160801c6fffffffffffffffffffffffffffffffff16149750505050505050509392505050565b610835611f9a565b61083d611fbc565b60008061084a8786610a8c565b915091506000806108ff886003600481106108685761086761265e565b5b60200201517f79be667ef9dcbbac55a06295ce870b07029bfcdb2dce28d959f2815b16f817987f483ada7726a3c4655da4fbfc0e1108a8fd17b448a68554199c47d08ffb10d4b88b6002600481106108c3576108c261265e565b5b60200201518d6000600281106108dc576108db61265e565b5b60200201518e6001600281106108f5576108f461265e565b5b602002015161107c565b915091506000806109298a60036004811061091d5761091c61265e565b5b602002015187876110f0565b915091506000806109838c6002600481106109475761094661265e565b5b60200201518d6000600481106109605761095f61265e565b5b60200201518e6001600481106109795761097861265e565b5b60200201516110f0565b91509150604051806040016040528087815260200186815250604051806080016040528086815260200185815260200184815260200183815250995099505050505050505050935093915050565b6109d9611fbc565b6051825114610a1d576040517f08c379a0000000000000000000000000000000000000000000000000000000008152600401610a14906128bc565b60405180910390fd5b600080600080600186015193506021860151925060318601519150605186015190506000610a4b8585610ff9565b90506040518060800160405280858152602001828152602001846fffffffffffffffffffffffffffffffff1681526020018381525095505050505050919050565b600080600060fe6001610acf87600060028110610aac57610aab61265e565b5b602002015188600160028110610ac557610ac461265e565b5b6020020151611032565b86604051602001610ae394939291906128dc565b604051602081830303815290604052905060005b6101008160ff161015610bea57600060028383604051602001610b1b929190612922565b604051602081830303815290604052604051610b379190612800565b602060405180830381855afa158015610b54573d6000803e3d6000fd5b5050506040513d601f19601f82011682018060405250810190610b779190612843565b905060008160001c90506000610b8e600283610ff9565b9050610bbf8282600060077ffffffffffffffffffffffffffffffffffffffffffffffffffffffffefffffc2f61112d565b15610bd4578181965096505050505050610c26565b5050508080610be290612979565b915050610af7565b506040517f08c379a0000000000000000000000000000000000000000000000000000000008152600401610c1d906129ef565b60405180910390fd5b9250929050565b6000807ffffffffffffffffffffffffffffffffebaaedce6af48a03bbfd25e8cd0364141887ffffffffffffffffffffffffffffffffebaaedce6af48a03bbfd25e8cd0364141610c7d9190612a0f565b610c879190612a72565b90507ffffffffffffffffffffffffffffffffebaaedce6af48a03bbfd25e8cd036414180610cb857610cb7612a43565b5b868209905060007ffffffffffffffffffffffffffffffffebaaedce6af48a03bbfd25e8cd0364141887ffffffffffffffffffffffffffffffffebaaedce6af48a03bbfd25e8cd0364141610d0c9190612a0f565b610d169190612a72565b9050600060018360001b600060028a610d2f9190612a72565b1415610d3c57601b610d3f565b601c5b8a60001b7ffffffffffffffffffffffffffffffffebaaedce6af48a03bbfd25e8cd036414180610d7257610d71612a43565b5b8c870960001b60405160008152602001604052604051610d959493929190612ab2565b6020604051602081039080840390855afa158015610db7573d6000803e3d6000fd5b5050506020604051035190508073ffffffffffffffffffffffffffffffffffffffff16610de487876111fb565b73ffffffffffffffffffffffffffffffffffffffff161493505050509695505050505050565b6000806001600080600288610e1f9190612a72565b1415610e2c57601b610e2f565b601c5b8860001b7ffffffffffffffffffffffffffffffffebaaedce6af48a03bbfd25e8cd036414180610e6257610e61612a43565b5b8a8c0960001b60405160008152602001604052604051610e859493929190612b3f565b6020604051602081039080840390855afa158015610ea7573d6000803e3d6000fd5b5050506020604051035190508073ffffffffffffffffffffffffffffffffffffffff16610ed485856111fb565b73ffffffffffffffffffffffffffffffffffffffff161491505095945050505050565b600080600080610f0888888761124d565b91509150610f1a8a8a84848a8a611274565b935093505050965096945050505050565b60008060fe6002610f3c8c8c611032565b610f468b8b611032565b610f508a8a611032565b610f5a8989611032565b604051602001610f6f96959493929190612b84565b60405160208183030381529060405290506000600282604051610f929190612800565b602060405180830381855afa158015610faf573d6000803e3d6000fd5b5050506040513d601f19601f82011682018060405250810190610fd29190612843565b90506000604051826000820152600081015191505080935050505098975050505050505050565b600061102a8383600060077ffffffffffffffffffffffffffffffffffffffffffffffffffffffffefffffc2f611309565b905092915050565b606060006002836110439190612a72565b600261104f9190612be4565b90508084604051602001611064929190612c5b565b60405160208183030381529060405291505092915050565b60008060008061108d8a8a8a6110f0565b9150915060008061109f8989896110f0565b915091506000806110d58686868660007ffffffffffffffffffffffffffffffffffffffffffffffffffffffffefffffc2f610ef7565b91509150818197509750505050505050965096945050505050565b60008061112185858560007ffffffffffffffffffffffffffffffffffffffffffffffffffffffffefffffc2f611424565b91509150935093915050565b6000856000148061113e5750818610155b806111495750846000145b806111545750818510155b1561116257600090506111f2565b6000828061117357611172612a43565b5b86870990506000838061118957611188612a43565b5b88858061119957611198612a43565b5b8a8b09099050600086146111cd5783806111b6576111b5612a43565b5b84806111c5576111c4612a43565b5b878a09820890505b600085146111ea5783806111e4576111e3612a43565b5b85820890505b808214925050505b95945050505050565b600073ffffffffffffffffffffffffffffffffffffffff8383604051602001611225929190612c87565b6040516020818303038152906040528051906020012060001c1660001b60601c905092915050565b6000808483858561125e9190612a0f565b6112689190612a72565b91509150935093915050565b6000806000806000888b14156112cc576000868061129557611294612a43565b5b898c0814156112ad57600080945094505050506112fe565b6112bb8b8b60018a8a61145e565b8093508194508295505050506112ea565b6112dd8b8b60018c8c60018c61161d565b8093508194508295505050505b6112f683838389611c9c565b945094505050505b965096945050505050565b600060028660ff161480611320575060038660ff16145b61135f576040517f08c379a000000000000000000000000000000000000000000000000000000000815260040161135690612d25565b60405180910390fd5b600082806113705761136f612a43565b5b838061137f5761137e612a43565b5b85858061138f5761138e612a43565b5b888a090884806113a2576113a1612a43565b5b85806113b1576113b0612a43565b5b898a0989090890506113dc8160046001866113cc9190612be4565b6113d69190612d45565b85611d13565b905060008060028960ff16846113f29190612be4565b6113fc9190612a72565b1461141257818461140d9190612a0f565b611414565b815b9050809250505095945050505050565b600080600080600061143b8a8a8a60018b8b611e0e565b92509250925061144d83838389611c9c565b945094505050509550959350505050565b60008060008086141561147957878787925092509250611612565b6000848061148a57611489612a43565b5b898a099050600085806114a05761149f612a43565b5b898a099050600086806114b6576114b5612a43565b5b898a099050600087806114cc576114cb612a43565b5b88806114db576114da612a43565b5b848e096004099050600088806114f4576114f3612a43565b5b898061150357611502612a43565b5b8a8061151257611511612a43565b5b8586098c098a8061152657611525612a43565b5b87600309089050888061153c5761153b612a43565b5b898061154b5761154a612a43565b5b8384088a6115599190612a0f565b8a8061156857611567612a43565b5b838409089450888061157d5761157c612a43565b5b898061158c5761158b612a43565b5b8a8061159b5761159a612a43565b5b8687096008098a6115ac9190612a0f565b8a806115bb576115ba612a43565b5b8b806115ca576115c9612a43565b5b888d6115d69190612a0f565b8608840908935088806115ec576115eb612a43565b5b89806115fb576115fa612a43565b5b8c8e09600209925084848497509750975050505050505b955095509592505050565b6000806000808a1480156116315750600089145b1561164457868686925092509250611c8f565b6000871480156116545750600086145b1561166757898989925092509250611c8f565b61166f611fbc565b848061167e5761167d612a43565b5b898a09816000600481106116955761169461265e565b5b60200201818152505084806116ad576116ac612a43565b5b816000600481106116c1576116c061265e565b5b60200201518a09816001600481106116dc576116db61265e565b5b60200201818152505084806116f4576116f3612a43565b5b8687098160026004811061170b5761170a61265e565b5b602002018181525050848061172357611722612a43565b5b816002600481106117375761173661265e565b5b60200201518709816003600481106117525761175161265e565b5b6020020181815250506040518060800160405280868061177557611774612a43565b5b836002600481106117895761178861265e565b5b60200201518e09815260200186806117a4576117a3612a43565b5b836003600481106117b8576117b761265e565b5b60200201518d09815260200186806117d3576117d2612a43565b5b836000600481106117e7576117e661265e565b5b60200201518b098152602001868061180257611801612a43565b5b836001600481106118165761181561265e565b5b60200201518a098152509050806002600481106118365761183561265e565b5b60200201518160006004811061184f5761184e61265e565b5b60200201511415806118915750806003600481106118705761186f61265e565b5b6020020151816001600481106118895761188861265e565b5b602002015114155b6118d0576040517f08c379a00000000000000000000000000000000000000000000000000000000081526004016118c790612dc2565b60405180910390fd5b6118d8611fbc565b85806118e7576118e6612a43565b5b826000600481106118fb576118fa61265e565b5b60200201518761190b9190612a0f565b8360026004811061191f5761191e61265e565b5b602002015108816000600481106119395761193861265e565b5b602002018181525050858061195157611950612a43565b5b826001600481106119655761196461265e565b5b6020020151876119759190612a0f565b836003600481106119895761198861265e565b5b602002015108816001600481106119a3576119a261265e565b5b60200201818152505085806119bb576119ba612a43565b5b816000600481106119cf576119ce61265e565b5b6020020151826000600481106119e8576119e761265e565b5b60200201510981600260048110611a0257611a0161265e565b5b6020020181815250508580611a1a57611a19612a43565b5b81600060048110611a2e57611a2d61265e565b5b602002015182600260048110611a4757611a4661265e565b5b60200201510981600360048110611a6157611a6061265e565b5b60200201818152505060008680611a7b57611a7a612a43565b5b82600360048110611a8f57611a8e61265e565b5b602002015188611a9f9190612a0f565b8880611aae57611aad612a43565b5b84600160048110611ac257611ac161265e565b5b602002015185600160048110611adb57611ada61265e565b5b6020020151090890508680611af357611af2612a43565b5b8780611b0257611b01612a43565b5b8880611b1157611b10612a43565b5b84600260048110611b2557611b2461265e565b5b602002015186600060048110611b3e57611b3d61265e565b5b60200201510960020988611b529190612a0f565b8208905060008780611b6757611b66612a43565b5b8880611b7657611b75612a43565b5b838a611b829190612a0f565b8a80611b9157611b90612a43565b5b86600260048110611ba557611ba461265e565b5b602002015188600060048110611bbe57611bbd61265e565b5b6020020151090884600160048110611bd957611bd861265e565b5b60200201510990508780611bf057611bef612a43565b5b8880611bff57611bfe612a43565b5b84600360048110611c1357611c1261265e565b5b602002015186600160048110611c2c57611c2b61265e565b5b60200201510989611c3d9190612a0f565b8208905060008880611c5257611c51612a43565b5b8980611c6157611c60612a43565b5b8b8f0985600060048110611c7857611c7761265e565b5b602002015109905082828297509750975050505050505b9750975097945050505050565b6000806000611cab8585611eae565b905060008480611cbe57611cbd612a43565b5b828309905060008580611cd457611cd3612a43565b5b828a09905060008680611cea57611ce9612a43565b5b8780611cf957611cf8612a43565b5b8486098a0990508181955095505050505094509492505050565b600080821415611d58576040517f08c379a0000000000000000000000000000000000000000000000000000000008152600401611d4f90612e2e565b60405180910390fd5b6000841415611d6a5760009050611e07565b6000831415611d7c5760019050611e07565b60006001905060007f800000000000000000000000000000000000000000000000000000000000000090505b6000811115611e0157838186161515870a85848509099150836002820486161515870a85848509099150836004820486161515870a85848509099150836008820486161515870a85848509099150601081049050611da8565b81925050505b9392505050565b600080600080891415611e2957878787925092509250611ea2565b60008990506000806000600190505b60008414611e945760006001851614611e6757611e5a8383838f8f8f8e61161d565b8093508194508295505050505b600284611e749190612d45565b9350611e838c8c8c8c8c61145e565b809c50819d50829e50505050611e38565b828282965096509650505050505b96509650969350505050565b6000808314158015611ec05750818314155b8015611ecd575060008214155b611f0c576040517f08c379a0000000000000000000000000000000000000000000000000000000008152600401611f0390612e9a565b60405180910390fd5b60008060019050600084905060005b60008714611f8d578682611f2f9190612d45565b9050828680611f4157611f40612a43565b5b8780611f5057611f4f612a43565b5b85840988611f5e9190612a0f565b86088094508195505050868782611f759190612eba565b83611f809190612a0f565b8098508193505050611f1b565b8394505050505092915050565b6040518060400160405280600290602082028036833780820191505090505090565b6040518060800160405280600490602082028036833780820191505090505090565b6000604051905090565b600080fd5b600080fd5b600080fd5b6000601f19601f8301169050919050565b7f4e487b7100000000000000000000000000000000000000000000000000000000600052604160045260246000fd5b61204082611ff7565b810181811067ffffffffffffffff8211171561205f5761205e612008565b5b80604052505050565b6000612072611fde565b905061207e8282612037565b919050565b600067ffffffffffffffff82111561209e5761209d612008565b5b602082029050919050565b600080fd5b6000819050919050565b6120c1816120ae565b81146120cc57600080fd5b50565b6000813590506120de816120b8565b92915050565b60006120f76120f284612083565b612068565b90508060208402830185811115612111576121106120a9565b5b835b8181101561213a578061212688826120cf565b845260208401935050602081019050612113565b5050509392505050565b600082601f83011261215957612158611ff2565b5b60026121668482856120e4565b91505092915050565b600067ffffffffffffffff82111561218a57612189612008565b5b602082029050919050565b60006121a86121a38461216f565b612068565b905080602084028301858111156121c2576121c16120a9565b5b835b818110156121eb57806121d788826120cf565b8452602084019350506020810190506121c4565b5050509392505050565b600082601f83011261220a57612209611ff2565b5b6004612217848285612195565b91505092915050565b600080fd5b600067ffffffffffffffff8211156122405761223f612008565b5b61224982611ff7565b9050602081019050919050565b82818337600083830152505050565b600061227861227384612225565b612068565b90508281526020810184848401111561229457612293612220565b5b61229f848285612256565b509392505050565b600082601f8301126122bc576122bb611ff2565b5b81356122cc848260208601612265565b91505092915050565b60008060008060006101a086880312156122f2576122f1611fe8565b5b600061230088828901612144565b9550506040612311888289016121f5565b94505060c086013567ffffffffffffffff81111561233257612331611fed565b5b61233e888289016122a7565b93505060e061234f88828901612144565b925050610120612361888289016121f5565b9150509295509295909350565b60008115159050919050565b6123838161236e565b82525050565b600060208201905061239e600083018461237a565b92915050565b6000602082840312156123ba576123b9611fe8565b5b600082013567ffffffffffffffff8111156123d8576123d7611fed565b5b6123e4848285016122a7565b91505092915050565b600060029050919050565b600081905092915050565b6000819050919050565b612416816120ae565b82525050565b6000612428838361240d565b60208301905092915050565b6000602082019050919050565b61244a816123ed565b61245481846123f8565b925061245f82612403565b8060005b83811015612490578151612477878261241c565b965061248283612434565b925050600181019050612463565b505050505050565b60006040820190506124ad6000830184612441565b92915050565b600080604083850312156124ca576124c9611fe8565b5b60006124d8858286016120cf565b92505060206124e9858286016120cf565b9150509250929050565b6000819050919050565b612506816124f3565b82525050565b600060208201905061252160008301846124fd565b92915050565b600080600060e084860312156125405761253f611fe8565b5b600061254e86828701612144565b935050604061255f868287016121f5565b92505060c084013567ffffffffffffffff8111156125805761257f611fed565b5b61258c868287016122a7565b9150509250925092565b600060049050919050565b600081905092915050565b6000819050919050565b6000602082019050919050565b6125cc81612596565b6125d681846125a1565b92506125e1826125ac565b8060005b838110156126125781516125f9878261241c565b9650612604836125b6565b9250506001810190506125e5565b505050505050565b600060c08201905061262f6000830185612441565b61263c60408301846125c3565b9392505050565b600060808201905061265860008301846125c3565b92915050565b7f4e487b7100000000000000000000000000000000000000000000000000000000600052603260045260246000fd5b600082825260208201905092915050565b7f4d616c666f726d656420636f6d7072657373656420454320706f696e74000000600082015250565b60006126d4601d8361268d565b91506126df8261269e565b602082019050919050565b60006020820190508181036000830152612703816126c7565b9050919050565b600060ff82169050919050565b60008160f81b9050919050565b600061272f82612717565b9050919050565b6127476127428261270a565b612724565b82525050565b600081519050919050565b600081905092915050565b60005b83811015612781578082015181840152602081019050612766565b83811115612790576000848401525b50505050565b60006127a18261274d565b6127ab8185612758565b93506127bb818560208601612763565b80840191505092915050565b60006127d38286612736565b6001820191506127e38285612736565b6001820191506127f38284612796565b9150819050949350505050565b600061280c8284612796565b915081905092915050565b612820816124f3565b811461282b57600080fd5b50565b60008151905061283d81612817565b92915050565b60006020828403121561285957612858611fe8565b5b60006128678482850161282e565b91505092915050565b7f4d616c666f726d6564205652462070726f6f6600000000000000000000000000600082015250565b60006128a660138361268d565b91506128b182612870565b602082019050919050565b600060208201905081810360008301526128d581612899565b9050919050565b60006128e88287612736565b6001820191506128f88286612736565b6001820191506129088285612796565b91506129148284612796565b915081905095945050505050565b600061292e8285612796565b915061293a8284612736565b6001820191508190509392505050565b7f4e487b7100000000000000000000000000000000000000000000000000000000600052601160045260246000fd5b60006129848261270a565b915060ff8214156129985761299761294a565b5b600182019050919050565b7f4e6f2076616c696420706f696e742077617320666f756e640000000000000000600082015250565b60006129d960188361268d565b91506129e4826129a3565b602082019050919050565b60006020820190508181036000830152612a08816129cc565b9050919050565b6000612a1a826120ae565b9150612a25836120ae565b925082821015612a3857612a3761294a565b5b828203905092915050565b7f4e487b7100000000000000000000000000000000000000000000000000000000600052601260045260246000fd5b6000612a7d826120ae565b9150612a88836120ae565b925082612a9857612a97612a43565b5b828206905092915050565b612aac8161270a565b82525050565b6000608082019050612ac760008301876124fd565b612ad46020830186612aa3565b612ae160408301856124fd565b612aee60608301846124fd565b95945050505050565b6000819050919050565b60008160001b9050919050565b6000612b29612b24612b1f84612af7565b612b01565b6124f3565b9050919050565b612b3981612b0e565b82525050565b6000608082019050612b546000830187612b30565b612b616020830186612aa3565b612b6e60408301856124fd565b612b7b60608301846124fd565b95945050505050565b6000612b908289612736565b600182019150612ba08288612736565b600182019150612bb08287612796565b9150612bbc8286612796565b9150612bc88285612796565b9150612bd48284612796565b9150819050979650505050505050565b6000612bef826120ae565b9150612bfa836120ae565b9250827fffffffffffffffffffffffffffffffffffffffffffffffffffffffffffffffff03821115612c2f57612c2e61294a565b5b828201905092915050565b6000819050919050565b612c55612c50826120ae565b612c3a565b82525050565b6000612c678285612736565b600182019150612c778284612c44565b6020820191508190509392505050565b6000612c938285612c44565b602082019150612ca38284612c44565b6020820191508190509392505050565b7f496e76616c696420636f6d7072657373656420454320706f696e74207072656660008201527f6978000000000000000000000000000000000000000000000000000000000000602082015250565b6000612d0f60228361268d565b9150612d1a82612cb3565b604082019050919050565b60006020820190508181036000830152612d3e81612d02565b9050919050565b6000612d50826120ae565b9150612d5b836120ae565b925082612d6b57612d6a612a43565b5b828204905092915050565b7f557365206a6163446f75626c652066756e6374696f6e20696e73746561640000600082015250565b6000612dac601e8361268d565b9150612db782612d76565b602082019050919050565b60006020820190508181036000830152612ddb81612d9f565b9050919050565b7f4d6f64756c7573206973207a65726f0000000000000000000000000000000000600082015250565b6000612e18600f8361268d565b9150612e2382612de2565b602082019050919050565b60006020820190508181036000830152612e4781612e0b565b9050919050565b7f496e76616c6964206e756d626572000000000000000000000000000000000000600082015250565b6000612e84600e8361268d565b9150612e8f82612e4e565b602082019050919050565b60006020820190508181036000830152612eb381612e77565b9050919050565b6000612ec5826120ae565b9150612ed0836120ae565b9250817fffffffffffffffffffffffffffffffffffffffffffffffffffffffffffffffff0483118215151615612f0957612f0861294a565b5b82820290509291505056fea26469706673582212203749e61f8b1c8c9fb6bfad9aa086e8403c734c93c48873a80236ff6689ecc17564736f6c63430008090033",
  "immutableReferences": {},
  "source": "// SPDX-License-Identifier: MIT\n\npragma solidity 0.8.9;\n\nimport \"./VRF.sol\";\n\n\n/**\n * @title Test Helper for the VRF contract\n * @dev The aim of this contract is twofold:\n * 1. Raise the visibility modifier of VRF contract functions for testing purposes\n * 2. Removal of the `pure` modifier to allow gas consumption analysis.\n */\ncontract VRFVerifier {\n    event VRFStatus(bool success);\n\n\n    function gammaToHash(uint256 gammaX, uint256 gammaY) public returns (bytes32) {\n        return VRF.gammaToHash(gammaX, gammaY);\n    }\n\n    function verify(\n        uint256[2] memory _publicKey,\n        uint256[4] memory _proof,\n        bytes memory _message)\n    public returns (bool)\n    {\n        bool success = VRF.verify(_publicKey, _proof, _message);\n        emit VRFStatus(success);\n        return success;\n    }\n\n    function fastVerify(\n        uint256[2] memory _publicKey,\n        uint256[4] memory _proof,\n        bytes memory _message,\n        uint256[2] memory _uPoint,\n        uint256[4] memory _vComponents)\n    public returns (bool)\n    {\n        return VRF.fastVerify(\n            _publicKey,\n            _proof,\n            _message,\n            _uPoint,\n            _vComponents);\n    }\n\n    function decodeProof(bytes memory _proof) public returns (uint[4] memory) {\n        return VRF.decodeProof(_proof);\n    }\n\n    function decodePoint(bytes memory _point) public returns (uint[2] memory) {\n        return VRF.decodePoint(_point);\n    }\n\n    function computeFastVerifyParams(\n        uint256[2] memory _publicKey,\n        uint256[4] memory _proof,\n        bytes memory _message)\n    public returns (uint256[2] memory, uint256[4] memory)\n    {\n        return VRF.computeFastVerifyParams(_publicKey, _proof, _message);\n    }\n}\n",
  "sourcePath": "/Users/lap02809/AstraProtocol/LampardNguyen234/vrf/contracts/VRFVerifier.sol",
  "compiler": {
    "name": "solc",
    "version": "0.8.9+commit.e5eed63a.Emscripten.clang"
  },
  "schemaVersion": "3.4.8",
  "updatedAt": "2022-08-03T08:14:00.129Z",
  "networkType": "ethereum",
  "devdoc": {
    "details": "The aim of this contract is twofold: 1. Raise the visibility modifier of VRF contract functions for testing purposes 2. Removal of the `pure` modifier to allow gas consumption analysis.",
    "kind": "dev",
    "methods": {},
    "title": "Test Helper for the VRF contract",
    "version": 1
  },
  "userdoc": {
    "kind": "user",
    "methods": {},
    "version": 1
  }
}